{
  "contractName": "Demo",
  "abi": [
    {
      "inputs": [],
      "stateMutability": "nonpayable",
      "type": "constructor"
    },
    {
      "anonymous": false,
      "inputs": [
        {
          "indexed": true,
          "internalType": "address",
          "name": "owner",
          "type": "address"
        },
        {
          "indexed": true,
          "internalType": "address",
          "name": "spender",
          "type": "address"
        },
        {
          "indexed": false,
          "internalType": "uint256",
          "name": "value",
          "type": "uint256"
        }
      ],
      "name": "Approval",
      "type": "event"
    },
    {
      "anonymous": false,
      "inputs": [
        {
          "indexed": true,
          "internalType": "address",
          "name": "previousOwner",
          "type": "address"
        },
        {
          "indexed": true,
          "internalType": "address",
          "name": "newOwner",
          "type": "address"
        }
      ],
      "name": "OwnershipTransferred",
      "type": "event"
    },
    {
      "anonymous": false,
      "inputs": [
        {
          "indexed": true,
          "internalType": "address",
          "name": "from",
          "type": "address"
        },
        {
          "indexed": true,
          "internalType": "address",
          "name": "to",
          "type": "address"
        },
        {
          "indexed": false,
          "internalType": "uint256",
          "name": "value",
          "type": "uint256"
        }
      ],
      "name": "Transfer",
      "type": "event"
    },
    {
      "inputs": [
        {
          "internalType": "address",
          "name": "owner",
          "type": "address"
        },
        {
          "internalType": "address",
          "name": "spender",
          "type": "address"
        }
      ],
      "name": "allowance",
      "outputs": [
        {
          "internalType": "uint256",
          "name": "",
          "type": "uint256"
        }
      ],
      "stateMutability": "view",
      "type": "function",
      "constant": true
    },
    {
      "inputs": [
        {
          "internalType": "address",
          "name": "spender",
          "type": "address"
        },
        {
          "internalType": "uint256",
          "name": "amount",
          "type": "uint256"
        }
      ],
      "name": "approve",
      "outputs": [
        {
          "internalType": "bool",
          "name": "",
          "type": "bool"
        }
      ],
      "stateMutability": "nonpayable",
      "type": "function"
    },
    {
      "inputs": [
        {
          "internalType": "address",
          "name": "account",
          "type": "address"
        }
      ],
      "name": "balanceOf",
      "outputs": [
        {
          "internalType": "uint256",
          "name": "",
          "type": "uint256"
        }
      ],
      "stateMutability": "view",
      "type": "function",
      "constant": true
    },
    {
      "inputs": [
        {
          "internalType": "uint256",
          "name": "amount",
          "type": "uint256"
        }
      ],
      "name": "burn",
      "outputs": [],
      "stateMutability": "nonpayable",
      "type": "function"
    },
    {
      "inputs": [
        {
          "internalType": "address",
          "name": "account",
          "type": "address"
        },
        {
          "internalType": "uint256",
          "name": "amount",
          "type": "uint256"
        }
      ],
      "name": "burnFrom",
      "outputs": [],
      "stateMutability": "nonpayable",
      "type": "function"
    },
    {
      "inputs": [],
      "name": "decimals",
      "outputs": [
        {
          "internalType": "uint8",
          "name": "",
          "type": "uint8"
        }
      ],
      "stateMutability": "view",
      "type": "function",
      "constant": true
    },
    {
      "inputs": [
        {
          "internalType": "address",
          "name": "spender",
          "type": "address"
        },
        {
          "internalType": "uint256",
          "name": "subtractedValue",
          "type": "uint256"
        }
      ],
      "name": "decreaseAllowance",
      "outputs": [
        {
          "internalType": "bool",
          "name": "",
          "type": "bool"
        }
      ],
      "stateMutability": "nonpayable",
      "type": "function"
    },
    {
      "inputs": [
        {
          "internalType": "address",
          "name": "token",
          "type": "address"
        },
        {
          "internalType": "uint256",
          "name": "amount",
          "type": "uint256"
        }
      ],
      "name": "flashFee",
      "outputs": [
        {
          "internalType": "uint256",
          "name": "",
          "type": "uint256"
        }
      ],
      "stateMutability": "view",
      "type": "function",
      "constant": true
    },
    {
      "inputs": [
        {
          "internalType": "contract IERC3156FlashBorrower",
          "name": "receiver",
          "type": "address"
        },
        {
          "internalType": "address",
          "name": "token",
          "type": "address"
        },
        {
          "internalType": "uint256",
          "name": "amount",
          "type": "uint256"
        },
        {
          "internalType": "bytes",
          "name": "data",
          "type": "bytes"
        }
      ],
      "name": "flashLoan",
      "outputs": [
        {
          "internalType": "bool",
          "name": "",
          "type": "bool"
        }
      ],
      "stateMutability": "nonpayable",
      "type": "function"
    },
    {
      "inputs": [
        {
          "internalType": "address",
          "name": "spender",
          "type": "address"
        },
        {
          "internalType": "uint256",
          "name": "addedValue",
          "type": "uint256"
        }
      ],
      "name": "increaseAllowance",
      "outputs": [
        {
          "internalType": "bool",
          "name": "",
          "type": "bool"
        }
      ],
      "stateMutability": "nonpayable",
      "type": "function"
    },
    {
      "inputs": [
        {
          "internalType": "address",
          "name": "token",
          "type": "address"
        }
      ],
      "name": "maxFlashLoan",
      "outputs": [
        {
          "internalType": "uint256",
          "name": "",
          "type": "uint256"
        }
      ],
      "stateMutability": "view",
      "type": "function",
      "constant": true
    },
    {
      "inputs": [],
      "name": "name",
      "outputs": [
        {
          "internalType": "string",
          "name": "",
          "type": "string"
        }
      ],
      "stateMutability": "view",
      "type": "function",
      "constant": true
    },
    {
      "inputs": [],
      "name": "owner",
      "outputs": [
        {
          "internalType": "address",
          "name": "",
          "type": "address"
        }
      ],
      "stateMutability": "view",
      "type": "function",
      "constant": true
    },
    {
      "inputs": [],
      "name": "renounceOwnership",
      "outputs": [],
      "stateMutability": "nonpayable",
      "type": "function"
    },
    {
      "inputs": [],
      "name": "symbol",
      "outputs": [
        {
          "internalType": "string",
          "name": "",
          "type": "string"
        }
      ],
      "stateMutability": "view",
      "type": "function",
      "constant": true
    },
    {
      "inputs": [],
      "name": "totalSupply",
      "outputs": [
        {
          "internalType": "uint256",
          "name": "",
          "type": "uint256"
        }
      ],
      "stateMutability": "view",
      "type": "function",
      "constant": true
    },
    {
      "inputs": [
        {
          "internalType": "address",
          "name": "recipient",
          "type": "address"
        },
        {
          "internalType": "uint256",
          "name": "amount",
          "type": "uint256"
        }
      ],
      "name": "transfer",
      "outputs": [
        {
          "internalType": "bool",
          "name": "",
          "type": "bool"
        }
      ],
      "stateMutability": "nonpayable",
      "type": "function"
    },
    {
      "inputs": [
        {
          "internalType": "address",
          "name": "sender",
          "type": "address"
        },
        {
          "internalType": "address",
          "name": "recipient",
          "type": "address"
        },
        {
          "internalType": "uint256",
          "name": "amount",
          "type": "uint256"
        }
      ],
      "name": "transferFrom",
      "outputs": [
        {
          "internalType": "bool",
          "name": "",
          "type": "bool"
        }
      ],
      "stateMutability": "nonpayable",
      "type": "function"
    },
    {
      "inputs": [
        {
          "internalType": "address",
          "name": "newOwner",
          "type": "address"
        }
      ],
      "name": "transferOwnership",
      "outputs": [],
      "stateMutability": "nonpayable",
      "type": "function"
    },
    {
      "inputs": [
        {
          "internalType": "address",
          "name": "to",
          "type": "address"
        },
        {
          "internalType": "uint256",
          "name": "amount",
          "type": "uint256"
        }
      ],
      "name": "mint",
      "outputs": [],
      "stateMutability": "nonpayable",
      "type": "function"
    }
  ],
  "bytecode": "0x60806040523480156200001157600080fd5b506040518060400160405280600481526020017f416d756e000000000000000000000000000000000000000000000000000000008152506040518060400160405280600381526020017f414d4e000000000000000000000000000000000000000000000000000000000081525081600390805190602001906200009692919062000371565b508060049080519060200190620000af92919062000371565b505050620000d2620000c66200011760201b60201c565b6200011f60201b60201c565b6200011133620000e7620001e560201b60201c565b600a620000f5919062000561565b620f42406200010591906200069e565b620001ee60201b60201c565b620007e0565b600033905090565b6000600560009054906101000a900473ffffffffffffffffffffffffffffffffffffffff16905081600560006101000a81548173ffffffffffffffffffffffffffffffffffffffff021916908373ffffffffffffffffffffffffffffffffffffffff1602179055508173ffffffffffffffffffffffffffffffffffffffff168173ffffffffffffffffffffffffffffffffffffffff167f8be0079c531659141344cd1fd0a4f28419497f9722a3daafe3b4186f6b6457e060405160405180910390a35050565b60006012905090565b600073ffffffffffffffffffffffffffffffffffffffff168273ffffffffffffffffffffffffffffffffffffffff16141562000261576040517f08c379a0000000000000000000000000000000000000000000000000000000008152600401620002589062000459565b60405180910390fd5b62000275600083836200036760201b60201c565b8060026000828254620002899190620004a9565b92505081905550806000808473ffffffffffffffffffffffffffffffffffffffff1673ffffffffffffffffffffffffffffffffffffffff1681526020019081526020016000206000828254620002e09190620004a9565b925050819055508173ffffffffffffffffffffffffffffffffffffffff16600073ffffffffffffffffffffffffffffffffffffffff167fddf252ad1be2c89b69c2b068fc378daa952ba7f163c4a11628f55a4df523b3ef836040516200034791906200047b565b60405180910390a362000363600083836200036c60201b60201c565b5050565b505050565b505050565b8280546200037f9062000716565b90600052602060002090601f016020900481019282620003a35760008555620003ef565b82601f10620003be57805160ff1916838001178555620003ef565b82800160010185558215620003ef579182015b82811115620003ee578251825591602001919060010190620003d1565b5b509050620003fe919062000402565b5090565b5b808211156200041d57600081600090555060010162000403565b5090565b600062000430601f8362000498565b91506200043d82620007b7565b602082019050919050565b6200045381620006ff565b82525050565b60006020820190508181036000830152620004748162000421565b9050919050565b600060208201905062000492600083018462000448565b92915050565b600082825260208201905092915050565b6000620004b682620006ff565b9150620004c383620006ff565b9250827fffffffffffffffffffffffffffffffffffffffffffffffffffffffffffffffff03821115620004fb57620004fa6200074c565b5b828201905092915050565b6000808291508390505b6001851115620005585780860481111562000530576200052f6200074c565b5b6001851615620005405780820291505b80810290506200055085620007aa565b945062000510565b94509492505050565b60006200056e82620006ff565b91506200057b8362000709565b9250620005aa7fffffffffffffffffffffffffffffffffffffffffffffffffffffffffffffffff8484620005b2565b905092915050565b600082620005c4576001905062000697565b81620005d4576000905062000697565b8160018114620005ed5760028114620005f8576200062e565b600191505062000697565b60ff8411156200060d576200060c6200074c565b5b8360020a9150848211156200062757620006266200074c565b5b5062000697565b5060208310610133831016604e8410600b8410161715620006685782820a9050838111156200066257620006616200074c565b5b62000697565b62000677848484600162000506565b925090508184048111156200069157620006906200074c565b5b81810290505b9392505050565b6000620006ab82620006ff565b9150620006b883620006ff565b9250817fffffffffffffffffffffffffffffffffffffffffffffffffffffffffffffffff0483118215151615620006f457620006f36200074c565b5b828202905092915050565b6000819050919050565b600060ff82169050919050565b600060028204905060018216806200072f57607f821691505b602082108114156200074657620007456200077b565b5b50919050565b7f4e487b7100000000000000000000000000000000000000000000000000000000600052601160045260246000fd5b7f4e487b7100000000000000000000000000000000000000000000000000000000600052602260045260246000fd5b60008160011c9050919050565b7f45524332303a206d696e7420746f20746865207a65726f206164647265737300600082015250565b6125e880620007f06000396000f3fe608060405234801561001057600080fd5b506004361061012c5760003560e01c806370a08231116100ad578063a457c2d711610071578063a457c2d714610345578063a9059cbb14610375578063d9d98ce4146103a5578063dd62ed3e146103d5578063f2fde38b146104055761012c565b806370a08231146102b3578063715018a6146102e357806379cc6790146102ed5780638da5cb5b1461030957806395d89b41146103275761012c565b806339509351116100f457806339509351146101eb57806340c10f191461021b57806342966c68146102375780635cffe9de14610253578063613255ab146102835761012c565b806306fdde0314610131578063095ea7b31461014f57806318160ddd1461017f57806323b872dd1461019d578063313ce567146101cd575b600080fd5b610139610421565b6040516101469190611c75565b60405180910390f35b61016960048036038101906101649190611803565b6104b3565b6040516101769190611c5a565b60405180910390f35b6101876104d1565b6040516101949190611e97565b60405180910390f35b6101b760048036038101906101b291906117b4565b6104db565b6040516101c49190611c5a565b60405180910390f35b6101d56105d3565b6040516101e29190611eb2565b60405180910390f35b61020560048036038101906102009190611803565b6105dc565b6040516102129190611c5a565b60405180910390f35b61023560048036038101906102309190611803565b610688565b005b610251600480360381019061024c91906118e8565b610712565b005b61026d60048036038101906102689190611868565b610726565b60405161027a9190611c5a565b60405180910390f35b61029d6004803603810190610298919061174f565b6108d6565b6040516102aa9190611e97565b60405180910390f35b6102cd60048036038101906102c8919061174f565b61094d565b6040516102da9190611e97565b60405180910390f35b6102eb610995565b005b61030760048036038101906103029190611803565b610a1d565b005b610311610a98565b60405161031e9190611be3565b60405180910390f35b61032f610ac2565b60405161033c9190611c75565b60405180910390f35b61035f600480360381019061035a9190611803565b610b54565b60405161036c9190611c5a565b60405180910390f35b61038f600480360381019061038a9190611803565b610c3f565b60405161039c9190611c5a565b60405180910390f35b6103bf60048036038101906103ba9190611803565b610c5d565b6040516103cc9190611e97565b60405180910390f35b6103ef60048036038101906103ea9190611778565b610cd7565b6040516103fc9190611e97565b60405180910390f35b61041f600480360381019061041a919061174f565b610d5e565b005b60606003805461043090612037565b80601f016020809104026020016040519081016040528092919081815260200182805461045c90612037565b80156104a95780601f1061047e576101008083540402835291602001916104a9565b820191906000526020600020905b81548152906001019060200180831161048c57829003601f168201915b5050505050905090565b60006104c76104c0610e56565b8484610e5e565b6001905092915050565b6000600254905090565b60006104e8848484611029565b6000600160008673ffffffffffffffffffffffffffffffffffffffff1673ffffffffffffffffffffffffffffffffffffffff1681526020019081526020016000206000610533610e56565b73ffffffffffffffffffffffffffffffffffffffff1673ffffffffffffffffffffffffffffffffffffffff168152602001908152602001600020549050828110156105b3576040517f08c379a00000000000000000000000000000000000000000000000000000000081526004016105aa90611d77565b60405180910390fd5b6105c7856105bf610e56565b858403610e5e565b60019150509392505050565b60006012905090565b600061067e6105e9610e56565b8484600160006105f7610e56565b73ffffffffffffffffffffffffffffffffffffffff1673ffffffffffffffffffffffffffffffffffffffff16815260200190815260200160002060008873ffffffffffffffffffffffffffffffffffffffff1673ffffffffffffffffffffffffffffffffffffffff168152602001908152602001600020546106799190611efa565b610e5e565b6001905092915050565b610690610e56565b73ffffffffffffffffffffffffffffffffffffffff166106ae610a98565b73ffffffffffffffffffffffffffffffffffffffff1614610704576040517f08c379a00000000000000000000000000000000000000000000000000000000081526004016106fb90611d97565b60405180910390fd5b61070e82826112aa565b5050565b61072361071d610e56565b8261140a565b50565b6000806107338686610c5d565b905061073f87866112aa565b7f439148f0bbc682ca079e46d6e2c2f0c1e3b820f1a291b069d8882abf8cf18dd98773ffffffffffffffffffffffffffffffffffffffff166323e30c8b338989868a8a6040518763ffffffff1660e01b81526004016107a396959493929190611bfe565b602060405180830381600087803b1580156107bd57600080fd5b505af11580156107d1573d6000803e3d6000fd5b505050506040513d601f19601f820116820180604052508101906107f5919061183f565b14610835576040517f08c379a000000000000000000000000000000000000000000000000000000000815260040161082c90611d37565b60405180910390fd5b60006108418830610cd7565b9050818661084f9190611efa565b811015610891576040517f08c379a000000000000000000000000000000000000000000000000000000000815260040161088890611e37565b60405180910390fd5b6108b288308489856108a39190611f50565b6108ad9190611f50565b610e5e565b6108c78883886108c29190611efa565b61140a565b60019250505095945050505050565b60003073ffffffffffffffffffffffffffffffffffffffff168273ffffffffffffffffffffffffffffffffffffffff1614610912576000610946565b61091a6104d1565b7fffffffffffffffffffffffffffffffffffffffffffffffffffffffffffffffff6109459190611f50565b5b9050919050565b60008060008373ffffffffffffffffffffffffffffffffffffffff1673ffffffffffffffffffffffffffffffffffffffff168152602001908152602001600020549050919050565b61099d610e56565b73ffffffffffffffffffffffffffffffffffffffff166109bb610a98565b73ffffffffffffffffffffffffffffffffffffffff1614610a11576040517f08c379a0000000000000000000000000000000000000000000000000000000008152600401610a0890611d97565b60405180910390fd5b610a1b60006115e1565b565b6000610a3083610a2b610e56565b610cd7565b905081811015610a75576040517f08c379a0000000000000000000000000000000000000000000000000000000008152600401610a6c90611db7565b60405180910390fd5b610a8983610a81610e56565b848403610e5e565b610a93838361140a565b505050565b6000600560009054906101000a900473ffffffffffffffffffffffffffffffffffffffff16905090565b606060048054610ad190612037565b80601f0160208091040260200160405190810160405280929190818152602001828054610afd90612037565b8015610b4a5780601f10610b1f57610100808354040283529160200191610b4a565b820191906000526020600020905b815481529060010190602001808311610b2d57829003601f168201915b5050505050905090565b60008060016000610b63610e56565b73ffffffffffffffffffffffffffffffffffffffff1673ffffffffffffffffffffffffffffffffffffffff16815260200190815260200160002060008573ffffffffffffffffffffffffffffffffffffffff1673ffffffffffffffffffffffffffffffffffffffff16815260200190815260200160002054905082811015610c20576040517f08c379a0000000000000000000000000000000000000000000000000000000008152600401610c1790611e57565b60405180910390fd5b610c34610c2b610e56565b85858403610e5e565b600191505092915050565b6000610c53610c4c610e56565b8484611029565b6001905092915050565b60003073ffffffffffffffffffffffffffffffffffffffff168373ffffffffffffffffffffffffffffffffffffffff1614610ccd576040517f08c379a0000000000000000000000000000000000000000000000000000000008152600401610cc490611d57565b60405180910390fd5b6000905092915050565b6000600160008473ffffffffffffffffffffffffffffffffffffffff1673ffffffffffffffffffffffffffffffffffffffff16815260200190815260200160002060008373ffffffffffffffffffffffffffffffffffffffff1673ffffffffffffffffffffffffffffffffffffffff16815260200190815260200160002054905092915050565b610d66610e56565b73ffffffffffffffffffffffffffffffffffffffff16610d84610a98565b73ffffffffffffffffffffffffffffffffffffffff1614610dda576040517f08c379a0000000000000000000000000000000000000000000000000000000008152600401610dd190611d97565b60405180910390fd5b600073ffffffffffffffffffffffffffffffffffffffff168173ffffffffffffffffffffffffffffffffffffffff161415610e4a576040517f08c379a0000000000000000000000000000000000000000000000000000000008152600401610e4190611cd7565b60405180910390fd5b610e53816115e1565b50565b600033905090565b600073ffffffffffffffffffffffffffffffffffffffff168373ffffffffffffffffffffffffffffffffffffffff161415610ece576040517f08c379a0000000000000000000000000000000000000000000000000000000008152600401610ec590611e17565b60405180910390fd5b600073ffffffffffffffffffffffffffffffffffffffff168273ffffffffffffffffffffffffffffffffffffffff161415610f3e576040517f08c379a0000000000000000000000000000000000000000000000000000000008152600401610f3590611cf7565b60405180910390fd5b80600160008573ffffffffffffffffffffffffffffffffffffffff1673ffffffffffffffffffffffffffffffffffffffff16815260200190815260200160002060008473ffffffffffffffffffffffffffffffffffffffff1673ffffffffffffffffffffffffffffffffffffffff168152602001908152602001600020819055508173ffffffffffffffffffffffffffffffffffffffff168373ffffffffffffffffffffffffffffffffffffffff167f8c5be1e5ebec7d5bd14f71427d1e84f3dd0314c0f7b2291e5b200ac8c7c3b9258360405161101c9190611e97565b60405180910390a3505050565b600073ffffffffffffffffffffffffffffffffffffffff168373ffffffffffffffffffffffffffffffffffffffff161415611099576040517f08c379a000000000000000000000000000000000000000000000000000000000815260040161109090611df7565b60405180910390fd5b600073ffffffffffffffffffffffffffffffffffffffff168273ffffffffffffffffffffffffffffffffffffffff161415611109576040517f08c379a000000000000000000000000000000000000000000000000000000000815260040161110090611c97565b60405180910390fd5b6111148383836116a7565b60008060008573ffffffffffffffffffffffffffffffffffffffff1673ffffffffffffffffffffffffffffffffffffffff1681526020019081526020016000205490508181101561119a576040517f08c379a000000000000000000000000000000000000000000000000000000000815260040161119190611d17565b60405180910390fd5b8181036000808673ffffffffffffffffffffffffffffffffffffffff1673ffffffffffffffffffffffffffffffffffffffff16815260200190815260200160002081905550816000808573ffffffffffffffffffffffffffffffffffffffff1673ffffffffffffffffffffffffffffffffffffffff168152602001908152602001600020600082825461122d9190611efa565b925050819055508273ffffffffffffffffffffffffffffffffffffffff168473ffffffffffffffffffffffffffffffffffffffff167fddf252ad1be2c89b69c2b068fc378daa952ba7f163c4a11628f55a4df523b3ef846040516112919190611e97565b60405180910390a36112a48484846116ac565b50505050565b600073ffffffffffffffffffffffffffffffffffffffff168273ffffffffffffffffffffffffffffffffffffffff16141561131a576040517f08c379a000000000000000000000000000000000000000000000000000000000815260040161131190611e77565b60405180910390fd5b611326600083836116a7565b80600260008282546113389190611efa565b92505081905550806000808473ffffffffffffffffffffffffffffffffffffffff1673ffffffffffffffffffffffffffffffffffffffff168152602001908152602001600020600082825461138d9190611efa565b925050819055508173ffffffffffffffffffffffffffffffffffffffff16600073ffffffffffffffffffffffffffffffffffffffff167fddf252ad1be2c89b69c2b068fc378daa952ba7f163c4a11628f55a4df523b3ef836040516113f29190611e97565b60405180910390a3611406600083836116ac565b5050565b600073ffffffffffffffffffffffffffffffffffffffff168273ffffffffffffffffffffffffffffffffffffffff16141561147a576040517f08c379a000000000000000000000000000000000000000000000000000000000815260040161147190611dd7565b60405180910390fd5b611486826000836116a7565b60008060008473ffffffffffffffffffffffffffffffffffffffff1673ffffffffffffffffffffffffffffffffffffffff1681526020019081526020016000205490508181101561150c576040517f08c379a000000000000000000000000000000000000000000000000000000000815260040161150390611cb7565b60405180910390fd5b8181036000808573ffffffffffffffffffffffffffffffffffffffff1673ffffffffffffffffffffffffffffffffffffffff1681526020019081526020016000208190555081600260008282546115639190611f50565b92505081905550600073ffffffffffffffffffffffffffffffffffffffff168373ffffffffffffffffffffffffffffffffffffffff167fddf252ad1be2c89b69c2b068fc378daa952ba7f163c4a11628f55a4df523b3ef846040516115c89190611e97565b60405180910390a36115dc836000846116ac565b505050565b6000600560009054906101000a900473ffffffffffffffffffffffffffffffffffffffff16905081600560006101000a81548173ffffffffffffffffffffffffffffffffffffffff021916908373ffffffffffffffffffffffffffffffffffffffff1602179055508173ffffffffffffffffffffffffffffffffffffffff168173ffffffffffffffffffffffffffffffffffffffff167f8be0079c531659141344cd1fd0a4f28419497f9722a3daafe3b4186f6b6457e060405160405180910390a35050565b505050565b505050565b6000813590506116c081612556565b92915050565b6000815190506116d58161256d565b92915050565b60008083601f8401126116ed57600080fd5b8235905067ffffffffffffffff81111561170657600080fd5b60208301915083600182028301111561171e57600080fd5b9250929050565b60008135905061173481612584565b92915050565b6000813590506117498161259b565b92915050565b60006020828403121561176157600080fd5b600061176f848285016116b1565b91505092915050565b6000806040838503121561178b57600080fd5b6000611799858286016116b1565b92505060206117aa858286016116b1565b9150509250929050565b6000806000606084860312156117c957600080fd5b60006117d7868287016116b1565b93505060206117e8868287016116b1565b92505060406117f98682870161173a565b9150509250925092565b6000806040838503121561181657600080fd5b6000611824858286016116b1565b92505060206118358582860161173a565b9150509250929050565b60006020828403121561185157600080fd5b600061185f848285016116c6565b91505092915050565b60008060008060006080868803121561188057600080fd5b600061188e88828901611725565b955050602061189f888289016116b1565b94505060406118b08882890161173a565b935050606086013567ffffffffffffffff8111156118cd57600080fd5b6118d9888289016116db565b92509250509295509295909350565b6000602082840312156118fa57600080fd5b60006119088482850161173a565b91505092915050565b61191a81611f84565b82525050565b61192981611f96565b82525050565b600061193b8385611ed8565b9350611948838584611ff5565b611951836120c7565b840190509392505050565b600061196782611ecd565b6119718185611ee9565b9350611981818560208601612004565b61198a816120c7565b840191505092915050565b60006119a2602383611ee9565b91506119ad826120d8565b604082019050919050565b60006119c5602283611ee9565b91506119d082612127565b604082019050919050565b60006119e8602683611ee9565b91506119f382612176565b604082019050919050565b6000611a0b602283611ee9565b9150611a16826121c5565b604082019050919050565b6000611a2e602683611ee9565b9150611a3982612214565b604082019050919050565b6000611a51602483611ee9565b9150611a5c82612263565b604082019050919050565b6000611a74601b83611ee9565b9150611a7f826122b2565b602082019050919050565b6000611a97602883611ee9565b9150611aa2826122db565b604082019050919050565b6000611aba602083611ee9565b9150611ac58261232a565b602082019050919050565b6000611add602483611ee9565b9150611ae882612353565b604082019050919050565b6000611b00602183611ee9565b9150611b0b826123a2565b604082019050919050565b6000611b23602583611ee9565b9150611b2e826123f1565b604082019050919050565b6000611b46602483611ee9565b9150611b5182612440565b604082019050919050565b6000611b69602f83611ee9565b9150611b748261248f565b604082019050919050565b6000611b8c602583611ee9565b9150611b97826124de565b604082019050919050565b6000611baf601f83611ee9565b9150611bba8261252d565b602082019050919050565b611bce81611fde565b82525050565b611bdd81611fe8565b82525050565b6000602082019050611bf86000830184611911565b92915050565b600060a082019050611c136000830189611911565b611c206020830188611911565b611c2d6040830187611bc5565b611c3a6060830186611bc5565b8181036080830152611c4d81848661192f565b9050979650505050505050565b6000602082019050611c6f6000830184611920565b92915050565b60006020820190508181036000830152611c8f818461195c565b905092915050565b60006020820190508181036000830152611cb081611995565b9050919050565b60006020820190508181036000830152611cd0816119b8565b9050919050565b60006020820190508181036000830152611cf0816119db565b9050919050565b60006020820190508181036000830152611d10816119fe565b9050919050565b60006020820190508181036000830152611d3081611a21565b9050919050565b60006020820190508181036000830152611d5081611a44565b9050919050565b60006020820190508181036000830152611d7081611a67565b9050919050565b60006020820190508181036000830152611d9081611a8a565b9050919050565b60006020820190508181036000830152611db081611aad565b9050919050565b60006020820190508181036000830152611dd081611ad0565b9050919050565b60006020820190508181036000830152611df081611af3565b9050919050565b60006020820190508181036000830152611e1081611b16565b9050919050565b60006020820190508181036000830152611e3081611b39565b9050919050565b60006020820190508181036000830152611e5081611b5c565b9050919050565b60006020820190508181036000830152611e7081611b7f565b9050919050565b60006020820190508181036000830152611e9081611ba2565b9050919050565b6000602082019050611eac6000830184611bc5565b92915050565b6000602082019050611ec76000830184611bd4565b92915050565b600081519050919050565b600082825260208201905092915050565b600082825260208201905092915050565b6000611f0582611fde565b9150611f1083611fde565b9250827fffffffffffffffffffffffffffffffffffffffffffffffffffffffffffffffff03821115611f4557611f44612069565b5b828201905092915050565b6000611f5b82611fde565b9150611f6683611fde565b925082821015611f7957611f78612069565b5b828203905092915050565b6000611f8f82611fbe565b9050919050565b60008115159050919050565b6000819050919050565b6000611fb782611f84565b9050919050565b600073ffffffffffffffffffffffffffffffffffffffff82169050919050565b6000819050919050565b600060ff82169050919050565b82818337600083830152505050565b60005b83811015612022578082015181840152602081019050612007565b83811115612031576000848401525b50505050565b6000600282049050600182168061204f57607f821691505b6020821081141561206357612062612098565b5b50919050565b7f4e487b7100000000000000000000000000000000000000000000000000000000600052601160045260246000fd5b7f4e487b7100000000000000000000000000000000000000000000000000000000600052602260045260246000fd5b6000601f19601f8301169050919050565b7f45524332303a207472616e7366657220746f20746865207a65726f206164647260008201527f6573730000000000000000000000000000000000000000000000000000000000602082015250565b7f45524332303a206275726e20616d6f756e7420657863656564732062616c616e60008201527f6365000000000000000000000000000000000000000000000000000000000000602082015250565b7f4f776e61626c653a206e6577206f776e657220697320746865207a65726f206160008201527f6464726573730000000000000000000000000000000000000000000000000000602082015250565b7f45524332303a20617070726f766520746f20746865207a65726f20616464726560008201527f7373000000000000000000000000000000000000000000000000000000000000602082015250565b7f45524332303a207472616e7366657220616d6f756e742065786365656473206260008201527f616c616e63650000000000000000000000000000000000000000000000000000602082015250565b7f4552433230466c6173684d696e743a20696e76616c69642072657475726e207660008201527f616c756500000000000000000000000000000000000000000000000000000000602082015250565b7f4552433230466c6173684d696e743a2077726f6e6720746f6b656e0000000000600082015250565b7f45524332303a207472616e7366657220616d6f756e742065786365656473206160008201527f6c6c6f77616e6365000000000000000000000000000000000000000000000000602082015250565b7f4f776e61626c653a2063616c6c6572206973206e6f7420746865206f776e6572600082015250565b7f45524332303a206275726e20616d6f756e74206578636565647320616c6c6f7760008201527f616e636500000000000000000000000000000000000000000000000000000000602082015250565b7f45524332303a206275726e2066726f6d20746865207a65726f2061646472657360008201527f7300000000000000000000000000000000000000000000000000000000000000602082015250565b7f45524332303a207472616e736665722066726f6d20746865207a65726f20616460008201527f6472657373000000000000000000000000000000000000000000000000000000602082015250565b7f45524332303a20617070726f76652066726f6d20746865207a65726f2061646460008201527f7265737300000000000000000000000000000000000000000000000000000000602082015250565b7f4552433230466c6173684d696e743a20616c6c6f77616e636520646f6573206e60008201527f6f7420616c6c6f7720726566756e640000000000000000000000000000000000602082015250565b7f45524332303a2064656372656173656420616c6c6f77616e63652062656c6f7760008201527f207a65726f000000000000000000000000000000000000000000000000000000602082015250565b7f45524332303a206d696e7420746f20746865207a65726f206164647265737300600082015250565b61255f81611f84565b811461256a57600080fd5b50565b61257681611fa2565b811461258157600080fd5b50565b61258d81611fac565b811461259857600080fd5b50565b6125a481611fde565b81146125af57600080fd5b5056fea264697066735822122059a58e7f5eae00601050129462ed3885010a95056b4d4efdebaeef08ff0c461e64736f6c63430008020033",
  "immutableReferences": {},
  "source": "// SPDX-License-Identifier: MIT\r\npragma solidity ^0.8.2;\r\n\r\n//import library\r\nimport '../node_modules/@openzeppelin/contracts/token/ERC20/ERC20.sol';\r\nimport '../node_modules/@openzeppelin/contracts/token/ERC20/extensions/ERC20Burnable.sol';\r\nimport '../node_modules/@openzeppelin/contracts/access/Ownable.sol';\r\nimport '../node_modules/@openzeppelin/contracts/token/ERC20/extensions/ERC20FlashMint.sol';\r\n\r\ncontract Demo is ERC20, ERC20Burnable, Ownable, ERC20FlashMint  {\r\n    constructor() ERC20(\"Amun\", \"AMN\") {\r\n        _mint(msg.sender, 1000000 * 10 **decimals());\r\n    }\r\n\r\n    function mint(address to, uint256 amount) public onlyOwner{\r\n        _mint(to, amount);\r\n    }\r\n}\r\n",
  "sourcePath": "E:\\programming\\Dapps\\demo-token\\contracts\\Demo.sol",
  "compiler": {
    "name": "solc",
    "version": "0.8.2+commit.661d1103.Emscripten.clang"
  },
  "schemaVersion": "3.4.3",
  "updatedAt": "2021-10-06T10:36:29.317Z",
  "networkType": "ethereum",
  "devdoc": {
    "kind": "dev",
    "methods": {
      "allowance(address,address)": {
        "details": "See {IERC20-allowance}."
      },
      "approve(address,uint256)": {
        "details": "See {IERC20-approve}. Requirements: - `spender` cannot be the zero address."
      },
      "balanceOf(address)": {
        "details": "See {IERC20-balanceOf}."
      },
      "burn(uint256)": {
        "details": "Destroys `amount` tokens from the caller. See {ERC20-_burn}."
      },
      "burnFrom(address,uint256)": {
        "details": "Destroys `amount` tokens from `account`, deducting from the caller's allowance. See {ERC20-_burn} and {ERC20-allowance}. Requirements: - the caller must have allowance for ``accounts``'s tokens of at least `amount`."
      },
      "decimals()": {
        "details": "Returns the number of decimals used to get its user representation. For example, if `decimals` equals `2`, a balance of `505` tokens should be displayed to a user as `5.05` (`505 / 10 ** 2`). Tokens usually opt for a value of 18, imitating the relationship between Ether and Wei. This is the value {ERC20} uses, unless this function is overridden; NOTE: This information is only used for _display_ purposes: it in no way affects any of the arithmetic of the contract, including {IERC20-balanceOf} and {IERC20-transfer}."
      },
      "decreaseAllowance(address,uint256)": {
        "details": "Atomically decreases the allowance granted to `spender` by the caller. This is an alternative to {approve} that can be used as a mitigation for problems described in {IERC20-approve}. Emits an {Approval} event indicating the updated allowance. Requirements: - `spender` cannot be the zero address. - `spender` must have allowance for the caller of at least `subtractedValue`."
      },
      "flashFee(address,uint256)": {
        "details": "Returns the fee applied when doing flash loans. By default this implementation has 0 fees. This function can be overloaded to make the flash loan mechanism deflationary.",
        "params": {
          "amount": "The amount of tokens to be loaned.",
          "token": "The token to be flash loaned."
        },
        "returns": {
          "_0": "The fees applied to the corresponding flash loan."
        }
      },
      "flashLoan(address,address,uint256,bytes)": {
        "details": "Performs a flash loan. New tokens are minted and sent to the `receiver`, who is required to implement the {IERC3156FlashBorrower} interface. By the end of the flash loan, the receiver is expected to own amount + fee tokens and have them approved back to the token contract itself so they can be burned.",
        "params": {
          "amount": "The amount of tokens to be loaned.",
          "data": "An arbitrary datafield that is passed to the receiver.",
          "receiver": "The receiver of the flash loan. Should implement the {IERC3156FlashBorrower.onFlashLoan} interface.",
          "token": "The token to be flash loaned. Only `address(this)` is supported."
        },
        "returns": {
          "_0": "`true` is the flash loan was successful."
        }
      },
      "increaseAllowance(address,uint256)": {
        "details": "Atomically increases the allowance granted to `spender` by the caller. This is an alternative to {approve} that can be used as a mitigation for problems described in {IERC20-approve}. Emits an {Approval} event indicating the updated allowance. Requirements: - `spender` cannot be the zero address."
      },
      "maxFlashLoan(address)": {
        "details": "Returns the maximum amount of tokens available for loan.",
        "params": {
          "token": "The address of the token that is requested."
        },
        "returns": {
          "_0": "The amont of token that can be loaned."
        }
      },
      "name()": {
        "details": "Returns the name of the token."
      },
      "owner()": {
        "details": "Returns the address of the current owner."
      },
      "renounceOwnership()": {
        "details": "Leaves the contract without owner. It will not be possible to call `onlyOwner` functions anymore. Can only be called by the current owner. NOTE: Renouncing ownership will leave the contract without an owner, thereby removing any functionality that is only available to the owner."
      },
      "symbol()": {
        "details": "Returns the symbol of the token, usually a shorter version of the name."
      },
      "totalSupply()": {
        "details": "See {IERC20-totalSupply}."
      },
      "transfer(address,uint256)": {
        "details": "See {IERC20-transfer}. Requirements: - `recipient` cannot be the zero address. - the caller must have a balance of at least `amount`."
      },
      "transferFrom(address,address,uint256)": {
        "details": "See {IERC20-transferFrom}. Emits an {Approval} event indicating the updated allowance. This is not required by the EIP. See the note at the beginning of {ERC20}. Requirements: - `sender` and `recipient` cannot be the zero address. - `sender` must have a balance of at least `amount`. - the caller must have allowance for ``sender``'s tokens of at least `amount`."
      },
      "transferOwnership(address)": {
        "details": "Transfers ownership of the contract to a new account (`newOwner`). Can only be called by the current owner."
      }
    },
    "version": 1
  },
  "userdoc": {
    "kind": "user",
    "methods": {},
    "version": 1
  }
}